{
  "contractName": "Donation",
  "abi": [
    {
      "inputs": [],
      "stateMutability": "nonpayable",
      "type": "constructor"
    },
    {
      "inputs": [
        {
          "internalType": "uint256",
          "name": "",
          "type": "uint256"
        }
      ],
      "name": "donors",
      "outputs": [
        {
          "internalType": "address payable",
          "name": "",
          "type": "address"
        }
      ],
      "stateMutability": "view",
      "type": "function",
      "constant": true
    },
    {
      "inputs": [
        {
          "internalType": "address",
          "name": "projectAddress",
          "type": "address"
        }
      ],
      "name": "donate",
      "outputs": [],
      "stateMutability": "payable",
      "type": "function",
      "payable": true
    },
    {
      "inputs": [],
      "name": "finishDonation",
      "outputs": [],
      "stateMutability": "nonpayable",
      "type": "function"
    }
  ],
  "bytecode": "0x608060405260405180610280016040528073f847b8cabdcaa8c03d2545238da75147fcc6e50973ffffffffffffffffffffffffffffffffffffffff1673ffffffffffffffffffffffffffffffffffffffff16815260200173851311277364f6ba805883d14fa47cc4d71f08d373ffffffffffffffffffffffffffffffffffffffff1673ffffffffffffffffffffffffffffffffffffffff1681526020017377301ac0efbeecedfd7c4683002c8259813216ac73ffffffffffffffffffffffffffffffffffffffff1673ffffffffffffffffffffffffffffffffffffffff16815260200173780e9633a53caebcfb05b49789214a452cf305d873ffffffffffffffffffffffffffffffffffffffff1673ffffffffffffffffffffffffffffffffffffffff16815260200173bfd36ff8379b9313d8ef5e9a7779bb161c386aad73ffffffffffffffffffffffffffffffffffffffff1673ffffffffffffffffffffffffffffffffffffffff16815260200173b14666db916d1e3bc1fe06e0c490263dce8e3db073ffffffffffffffffffffffffffffffffffffffff1673ffffffffffffffffffffffffffffffffffffffff16815260200173fd76e21974a628153ed8305bd95c8744966a304273ffffffffffffffffffffffffffffffffffffffff1673ffffffffffffffffffffffffffffffffffffffff168152602001731d941d54424b65a90134f76cb4c528abf59be78b73ffffffffffffffffffffffffffffffffffffffff1673ffffffffffffffffffffffffffffffffffffffff168152602001739f4746cbd27a4fb3daf235227347827cc91604e373ffffffffffffffffffffffffffffffffffffffff1673ffffffffffffffffffffffffffffffffffffffff16815260200173c9b021e83c1f0af174e668bcb017b116f42a0dd573ffffffffffffffffffffffffffffffffffffffff1673ffffffffffffffffffffffffffffffffffffffff1681526020017373b374356cdcef897de065b9a290ce4933ba782473ffffffffffffffffffffffffffffffffffffffff1673ffffffffffffffffffffffffffffffffffffffff168152602001738a864e6be66749925ade4784f5bba2d34af6236073ffffffffffffffffffffffffffffffffffffffff1673ffffffffffffffffffffffffffffffffffffffff168152602001736becb3b84aa562a49be5485e2aeabba1f4faa55a73ffffffffffffffffffffffffffffffffffffffff1673ffffffffffffffffffffffffffffffffffffffff16815260200173ad95122b83e6250c2051de25b3c438e67ef84c7873ffffffffffffffffffffffffffffffffffffffff1673ffffffffffffffffffffffffffffffffffffffff1681526020017223287d0c14f6ca483433c016648937511c1fc673ffffffffffffffffffffffffffffffffffffffff1673ffffffffffffffffffffffffffffffffffffffff16815260200172c7dc79e1dec74ba51751a4b033d277db186b2d73ffffffffffffffffffffffffffffffffffffffff1673ffffffffffffffffffffffffffffffffffffffff16815260200173e902f1979abe4b9eb2d53b3f939031bb1b139c5073ffffffffffffffffffffffffffffffffffffffff1673ffffffffffffffffffffffffffffffffffffffff168152602001739f94a4780f781e5e10c9a38019d86bd3a479e19673ffffffffffffffffffffffffffffffffffffffff1673ffffffffffffffffffffffffffffffffffffffff16815260200173965cc9a7a7279c27932edda7cca5245c74c088ad73ffffffffffffffffffffffffffffffffffffffff1673ffffffffffffffffffffffffffffffffffffffff16815260200173bed5672cf7313b3d4eed0358b34afdb45d632ea473ffffffffffffffffffffffffffffffffffffffff1673ffffffffffffffffffffffffffffffffffffffff1681525060009060146105949291906105e8565b503480156105a157600080fd5b5033600260006101000a81548173ffffffffffffffffffffffffffffffffffffffff021916908373ffffffffffffffffffffffffffffffffffffffff16021790555061068f565b828054828255906000526020600020908101928215610661579160200282015b828111156106605782518260006101000a81548173ffffffffffffffffffffffffffffffffffffffff021916908373ffffffffffffffffffffffffffffffffffffffff16021790555091602001919060010190610608565b5b50905061066e9190610672565b5090565b5b8082111561068b576000816000905550600101610673565b5090565b6106348061069e6000396000f3fe6080604052600436106100335760003560e01c8062362a95146100385780633fa71cef146100545780634abfa1631461006b575b600080fd5b610052600480360381019061004d9190610393565b6100a8565b005b34801561006057600080fd5b50610069610101565b005b34801561007757600080fd5b50610092600480360381019061008d91906103f6565b6102f1565b60405161009f9190610444565b60405180910390f35b34600160008373ffffffffffffffffffffffffffffffffffffffff1673ffffffffffffffffffffffffffffffffffffffff16815260200190815260200160002060008282546100f7919061048e565b9250508190555050565b600260009054906101000a900473ffffffffffffffffffffffffffffffffffffffff1673ffffffffffffffffffffffffffffffffffffffff163373ffffffffffffffffffffffffffffffffffffffff1614610191576040517f08c379a000000000000000000000000000000000000000000000000000000000815260040161018890610567565b60405180910390fd5b60005b6000805490508110156102b557600081815481106101b5576101b4610587565b5b9060005260206000200160009054906101000a900473ffffffffffffffffffffffffffffffffffffffff1673ffffffffffffffffffffffffffffffffffffffff166108fc600160008085815481106102105761020f610587565b5b9060005260206000200160009054906101000a900473ffffffffffffffffffffffffffffffffffffffff1673ffffffffffffffffffffffffffffffffffffffff1673ffffffffffffffffffffffffffffffffffffffff168152602001908152602001600020549081150290604051600060405180830381858888f193505050501580156102a1573d6000803e3d6000fd5b5080806102ad906105b6565b915050610194565b50600260009054906101000a900473ffffffffffffffffffffffffffffffffffffffff1673ffffffffffffffffffffffffffffffffffffffff16ff5b6000818154811061030157600080fd5b906000526020600020016000915054906101000a900473ffffffffffffffffffffffffffffffffffffffff1681565b600080fd5b600073ffffffffffffffffffffffffffffffffffffffff82169050919050565b600061036082610335565b9050919050565b61037081610355565b811461037b57600080fd5b50565b60008135905061038d81610367565b92915050565b6000602082840312156103a9576103a8610330565b5b60006103b78482850161037e565b91505092915050565b6000819050919050565b6103d3816103c0565b81146103de57600080fd5b50565b6000813590506103f0816103ca565b92915050565b60006020828403121561040c5761040b610330565b5b600061041a848285016103e1565b91505092915050565b600061042e82610335565b9050919050565b61043e81610423565b82525050565b60006020820190506104596000830184610435565b92915050565b7f4e487b7100000000000000000000000000000000000000000000000000000000600052601160045260246000fd5b6000610499826103c0565b91506104a4836103c0565b9250827fffffffffffffffffffffffffffffffffffffffffffffffffffffffffffffffff038211156104d9576104d861045f565b5b828201905092915050565b600082825260208201905092915050565b7f596f7520646f6e277420686176652074686520617574686f7269747920746f2060008201527f66696e69736820646f6e6174696f6e2070726f636573732e0000000000000000602082015250565b60006105516038836104e4565b915061055c826104f5565b604082019050919050565b6000602082019050818103600083015261058081610544565b9050919050565b7f4e487b7100000000000000000000000000000000000000000000000000000000600052603260045260246000fd5b60006105c1826103c0565b91507fffffffffffffffffffffffffffffffffffffffffffffffffffffffffffffffff82036105f3576105f261045f565b5b60018201905091905056fea26469706673582212207cdb65077643926d40ecd818f6291c33479074bcc166a394a5079ae01020982064736f6c634300080f0033",
  "immutableReferences": {},
  "source": "pragma solidity ^0.8.0;\n\ncontract Donation {\n\n    address payable[] public donors = [payable(0xf847b8CABDcaa8C03D2545238Da75147FcC6e509),payable(0x851311277364F6ba805883d14Fa47CC4D71f08d3),payable(0x77301AC0EFbEeCedfd7c4683002c8259813216AC),payable(0x780e9633a53cAebcfb05b49789214a452CF305D8),payable(0xBfD36FF8379b9313D8ef5e9a7779Bb161c386aAD),payable(0xb14666db916D1e3Bc1FE06E0c490263dCe8E3dB0),payable(0xfD76e21974a628153ED8305BD95c8744966a3042),payable(0x1D941D54424b65a90134F76Cb4c528abF59Be78B),payable(0x9F4746cbD27A4FB3DAf235227347827Cc91604e3),payable(0xC9b021E83c1F0AF174E668bCB017b116F42a0dd5),payable(0x73B374356CdcEF897dE065b9a290ce4933bA7824),payable(0x8a864E6bE66749925ADe4784f5bba2D34AF62360),payable(0x6beCB3B84Aa562a49Be5485e2AeaBbA1F4fAA55A),payable(0xaD95122B83E6250c2051de25B3C438e67eF84C78),payable(0x0023287d0c14f6cA483433C016648937511C1fc6),payable(0x00c7dc79e1deC74BA51751a4b033D277DB186b2D),payable(0xe902f1979ABe4B9eB2d53B3F939031BB1B139c50),payable(0x9f94a4780f781e5E10c9a38019D86Bd3a479e196),payable(0x965Cc9a7A7279C27932edDa7CCa5245C74C088Ad),payable(0xbed5672CF7313b3D4eEd0358B34AfdB45d632eA4)];\n    mapping(address => uint) donations;\n    address owner;\n\n    constructor() {\n        owner = msg.sender;\n    }\n\n    function donate(address projectAddress) public payable{\n        donations[projectAddress] += msg.value;\n    }\n\n    function finishDonation() public {\n        require(msg.sender == owner, \"You don't have the authority to finish donation process.\");\n        for(uint i = 0; i < donors.length; i++){\n            donors[i].transfer(donations[donors[i]]);\n        }\n        selfdestruct(payable(owner));  //Here actually, there must be no fund to send the owner.\n    }\n}\n",
  "sourcePath": "/home/safak/redux2/truffle/contracts/Donation.sol",
  "compiler": {
    "name": "solc",
    "version": "0.8.15+commit.e14f2714.Emscripten.clang"
  },
  "schemaVersion": "3.4.8",
  "updatedAt": "2022-09-28T15:27:24.430Z",
  "networkType": "ethereum",
  "devdoc": {
    "kind": "dev",
    "methods": {},
    "version": 1
  },
  "userdoc": {
    "kind": "user",
    "methods": {},
    "version": 1
  }
}